{
    "contractName": "TokenFractional1155",
    "abi": [
        {
            "inputs": [],
            "stateMutability": "nonpayable",
            "type": "constructor"
        },
        {
            "anonymous": false,
            "inputs": [
                {
                    "indexed": true,
                    "internalType": "address",
                    "name": "account",
                    "type": "address"
                },
                {
                    "indexed": true,
                    "internalType": "address",
                    "name": "operator",
                    "type": "address"
                },
                {
                    "indexed": false,
                    "internalType": "bool",
                    "name": "approved",
                    "type": "bool"
                }
            ],
            "name": "ApprovalForAll",
            "type": "event"
        },
        {
            "anonymous": false,
            "inputs": [
                {
                    "indexed": true,
                    "internalType": "address",
                    "name": "sender",
                    "type": "address"
                },
                {
                    "indexed": false,
                    "internalType": "uint256",
                    "name": "tokenId",
                    "type": "uint256"
                },
                {
                    "indexed": true,
                    "internalType": "address",
                    "name": "to",
                    "type": "address"
                }
            ],
            "name": "Compose",
            "type": "event"
        },
        {
            "anonymous": false,
            "inputs": [
                {
                    "indexed": true,
                    "internalType": "address",
                    "name": "erc721",
                    "type": "address"
                },
                {
                    "indexed": true,
                    "internalType": "address",
                    "name": "spender",
                    "type": "address"
                },
                {
                    "indexed": false,
                    "internalType": "uint256",
                    "name": "erctokenId",
                    "type": "uint256"
                },
                {
                    "indexed": false,
                    "internalType": "uint256",
                    "name": "tokenId",
                    "type": "uint256"
                },
                {
                    "indexed": false,
                    "internalType": "uint256",
                    "name": "amount",
                    "type": "uint256"
                }
            ],
            "name": "Fractional",
            "type": "event"
        },
        {
            "anonymous": false,
            "inputs": [
                {
                    "indexed": true,
                    "internalType": "address",
                    "name": "operator",
                    "type": "address"
                },
                {
                    "indexed": true,
                    "internalType": "address",
                    "name": "from",
                    "type": "address"
                },
                {
                    "indexed": true,
                    "internalType": "address",
                    "name": "to",
                    "type": "address"
                },
                {
                    "indexed": false,
                    "internalType": "uint256[]",
                    "name": "ids",
                    "type": "uint256[]"
                },
                {
                    "indexed": false,
                    "internalType": "uint256[]",
                    "name": "values",
                    "type": "uint256[]"
                }
            ],
            "name": "TransferBatch",
            "type": "event"
        },
        {
            "anonymous": false,
            "inputs": [
                {
                    "indexed": true,
                    "internalType": "address",
                    "name": "operator",
                    "type": "address"
                },
                {
                    "indexed": true,
                    "internalType": "address",
                    "name": "from",
                    "type": "address"
                },
                {
                    "indexed": true,
                    "internalType": "address",
                    "name": "to",
                    "type": "address"
                },
                {
                    "indexed": false,
                    "internalType": "uint256",
                    "name": "id",
                    "type": "uint256"
                },
                {
                    "indexed": false,
                    "internalType": "uint256",
                    "name": "value",
                    "type": "uint256"
                }
            ],
            "name": "TransferSingle",
            "type": "event"
        },
        {
            "anonymous": false,
            "inputs": [
                {
                    "indexed": false,
                    "internalType": "string",
                    "name": "value",
                    "type": "string"
                },
                {
                    "indexed": true,
                    "internalType": "uint256",
                    "name": "id",
                    "type": "uint256"
                }
            ],
            "name": "URI",
            "type": "event"
        },
        {
            "inputs": [
                {
                    "internalType": "address",
                    "name": "erc721address",
                    "type": "address"
                },
                {
                    "internalType": "uint256",
                    "name": "erc721tokenId",
                    "type": "uint256"
                }
            ],
            "name": "NFTOf",
            "outputs": [
                {
                    "internalType": "uint256",
                    "name": "",
                    "type": "uint256"
                }
            ],
            "stateMutability": "view",
            "type": "function"
        },
        {
            "inputs": [
                {
                    "internalType": "address",
                    "name": "account",
                    "type": "address"
                },
                {
                    "internalType": "uint256",
                    "name": "id",
                    "type": "uint256"
                }
            ],
            "name": "balanceOf",
            "outputs": [
                {
                    "internalType": "uint256",
                    "name": "",
                    "type": "uint256"
                }
            ],
            "stateMutability": "view",
            "type": "function"
        },
        {
            "inputs": [
                {
                    "internalType": "address[]",
                    "name": "accounts",
                    "type": "address[]"
                },
                {
                    "internalType": "uint256[]",
                    "name": "ids",
                    "type": "uint256[]"
                }
            ],
            "name": "balanceOfBatch",
            "outputs": [
                {
                    "internalType": "uint256[]",
                    "name": "",
                    "type": "uint256[]"
                }
            ],
            "stateMutability": "view",
            "type": "function"
        },
        {
            "inputs": [
                {
                    "internalType": "address",
                    "name": "to",
                    "type": "address"
                },
                {
                    "internalType": "uint256",
                    "name": "tokenId",
                    "type": "uint256"
                }
            ],
            "name": "compose",
            "outputs": [],
            "stateMutability": "nonpayable",
            "type": "function"
        },
        {
            "inputs": [
                {
                    "internalType": "address",
                    "name": "erc721address",
                    "type": "address"
                },
                {
                    "internalType": "uint256",
                    "name": "erc721tokenId",
                    "type": "uint256"
                },
                {
                    "internalType": "uint256",
                    "name": "amount",
                    "type": "uint256"
                },
                {
                    "internalType": "bytes",
                    "name": "data",
                    "type": "bytes"
                }
            ],
            "name": "fractional",
            "outputs": [],
            "stateMutability": "nonpayable",
            "type": "function"
        },
        {
            "inputs": [
                {
                    "internalType": "address",
                    "name": "account",
                    "type": "address"
                },
                {
                    "internalType": "address",
                    "name": "operator",
                    "type": "address"
                }
            ],
            "name": "isApprovedForAll",
            "outputs": [
                {
                    "internalType": "bool",
                    "name": "",
                    "type": "bool"
                }
            ],
            "stateMutability": "view",
            "type": "function"
        },
        {
            "inputs": [
                {
                    "internalType": "address",
                    "name": "from",
                    "type": "address"
                },
                {
                    "internalType": "address",
                    "name": "to",
                    "type": "address"
                },
                {
                    "internalType": "uint256[]",
                    "name": "ids",
                    "type": "uint256[]"
                },
                {
                    "internalType": "uint256[]",
                    "name": "amounts",
                    "type": "uint256[]"
                },
                {
                    "internalType": "bytes",
                    "name": "data",
                    "type": "bytes"
                }
            ],
            "name": "safeBatchTransferFrom",
            "outputs": [],
            "stateMutability": "nonpayable",
            "type": "function"
        },
        {
            "inputs": [
                {
                    "internalType": "address",
                    "name": "from",
                    "type": "address"
                },
                {
                    "internalType": "address",
                    "name": "to",
                    "type": "address"
                },
                {
                    "internalType": "uint256",
                    "name": "id",
                    "type": "uint256"
                },
                {
                    "internalType": "uint256",
                    "name": "amount",
                    "type": "uint256"
                },
                {
                    "internalType": "bytes",
                    "name": "data",
                    "type": "bytes"
                }
            ],
            "name": "safeTransferFrom",
            "outputs": [],
            "stateMutability": "nonpayable",
            "type": "function"
        },
        {
            "inputs": [
                {
                    "internalType": "address",
                    "name": "operator",
                    "type": "address"
                },
                {
                    "internalType": "bool",
                    "name": "approved",
                    "type": "bool"
                }
            ],
            "name": "setApprovalForAll",
            "outputs": [],
            "stateMutability": "nonpayable",
            "type": "function"
        },
        {
            "inputs": [
                {
                    "internalType": "bytes4",
                    "name": "interfaceId",
                    "type": "bytes4"
                }
            ],
            "name": "supportsInterface",
            "outputs": [
                {
                    "internalType": "bool",
                    "name": "",
                    "type": "bool"
                }
            ],
            "stateMutability": "view",
            "type": "function"
        },
        {
            "inputs": [
                {
                    "internalType": "uint256",
                    "name": "tokenId",
                    "type": "uint256"
                }
            ],
            "name": "tokenOf",
            "outputs": [
                {
                    "internalType": "address",
                    "name": "",
                    "type": "address"
                },
                {
                    "internalType": "uint256",
                    "name": "",
                    "type": "uint256"
                }
            ],
            "stateMutability": "view",
            "type": "function"
        },
        {
            "inputs": [
                {
                    "internalType": "uint256",
                    "name": "tokenId",
                    "type": "uint256"
                }
            ],
            "name": "totalSupply",
            "outputs": [
                {
                    "internalType": "uint256",
                    "name": "",
                    "type": "uint256"
                }
            ],
            "stateMutability": "view",
            "type": "function"
        },
        {
            "inputs": [
                {
                    "internalType": "uint256",
                    "name": "",
                    "type": "uint256"
                }
            ],
            "name": "uri",
            "outputs": [
                {
                    "internalType": "string",
                    "name": "",
                    "type": "string"
                }
            ],
            "stateMutability": "view",
            "type": "function"
        }
    ],
    "bytecode": "60806040523480156200001157600080fd5b506040805160208101909152600081526200002c8162000033565b50620001b6565b6002620000418282620000ea565b5050565b634e487b7160e01b600052604160045260246000fd5b600181811c908216806200007057607f821691505b6020821081036200009157634e487b7160e01b600052602260045260246000fd5b50919050565b601f821115620000e557600081815260208120601f850160051c81016020861015620000c05750805b601f850160051c820191505b81811015620000e157828155600101620000cc565b5050505b505050565b81516001600160401b0381111562000106576200010662000045565b6200011e816200011784546200005b565b8462000097565b602080601f8311600181146200015657600084156200013d5750858301515b600019600386901b1c1916600185901b178555620000e1565b600085815260208120601f198616915b82811015620001875788860151825594840194600190910190840162000166565b5085821015620001a65787850151600019600388901b60f8161c191681555b5050505050600190811b01905550565b611d6d80620001c66000396000f3fe608060405234801561001057600080fd5b50600436106100ce5760003560e01c806367c8eb101161008c578063bd85b03911610066578063bd85b039146101bd578063e985e9c5146101d0578063ea78803f1461020c578063f242432a1461023e57600080fd5b806367c8eb1014610184578063a22cb46514610197578063aa3552e3146101aa57600080fd5b8062fdd58e146100d357806301ffc9a7146100f95780630e89341c1461011c5780632eb2c2d61461013c5780634e1273f4146101515780635af7714014610171575b600080fd5b6100e66100e136600461146a565b610251565b6040519081526020015b60405180910390f35b61010c6101073660046114ac565b6102ea565b60405190151581526020016100f0565b61012f61012a3660046114d0565b61033a565b6040516100f0919061152f565b61014f61014a36600461168e565b6103ce565b005b61016461015f36600461173c565b61041a565b6040516100f09190611844565b61014f61017f36600461146a565b610544565b6100e661019236600461146a565b61079b565b61014f6101a5366004611857565b610828565b61014f6101b8366004611895565b610837565b6100e66101cb3660046114d0565b610a9b565b61010c6101de3660046118f8565b6001600160a01b03918216600090815260016020908152604080832093909416825291909152205460ff1690565b61021f61021a3660046114d0565b610adf565b604080516001600160a01b0390931683526020830191909152016100f0565b61014f61024c366004611926565b610b39565b60006001600160a01b0383166102c15760405162461bcd60e51b815260206004820152602a60248201527f455243313135353a2061646472657373207a65726f206973206e6f742061207660448201526930b634b21037bbb732b960b11b60648201526084015b60405180910390fd5b506000818152602081815260408083206001600160a01b03861684529091529020545b92915050565b60006001600160e01b03198216636cdb3d1360e11b148061031b57506001600160e01b031982166303a24d0760e21b145b806102e457506301ffc9a760e01b6001600160e01b03198316146102e4565b6060600280546103499061198f565b80601f01602080910402602001604051908101604052809291908181526020018280546103759061198f565b80156103c25780601f10610397576101008083540402835291602001916103c2565b820191906000526020600020905b8154815290600101906020018083116103a557829003601f168201915b50505050509050919050565b6001600160a01b0385163314806103ea57506103ea85336101de565b6104065760405162461bcd60e51b81526004016102b8906119c9565b6104138585858585610b7e565b5050505050565b6060815183511461047f5760405162461bcd60e51b815260206004820152602960248201527f455243313135353a206163636f756e747320616e6420696473206c656e677468604482015268040dad2e6dac2e8c6d60bb1b60648201526084016102b8565b6000835167ffffffffffffffff81111561049b5761049b611542565b6040519080825280602002602001820160405280156104c4578160200160208202803683370190505b50905060005b845181101561053c5761050f8582815181106104e8576104e8611a17565b602002602001015185838151811061050257610502611a17565b6020026020010151610251565b82828151811061052157610521611a17565b602090810291909101015261053581611a43565b90506104ca565b509392505050565b6000818152600460205260409020600201546105725760405162461bcd60e51b81526004016102b890611a5c565b60003360405163bd85b03960e01b815260048101849052909150600090309063bd85b03990602401602060405180830381865afa1580156105b7573d6000803e3d6000fd5b505050506040513d601f19601f820116820180604052508101906105db9190611a83565b604051627eeac760e11b81526001600160a01b0384166004820152602481018590529091508190309062fdd58e90604401602060405180830381865afa158015610629573d6000803e3d6000fd5b505050506040513d601f19601f8201168201806040525081019061064d9190611a83565b1461069a5760405162461bcd60e51b815260206004820152601960248201527f4e6f74206f776e696e6720616c6c2074686520746f6b656e730000000000000060448201526064016102b8565b600083815260046020819052604091829020805460019091015492516323b872dd60e01b815230928101929092526001600160a01b03878116602484015260448301939093526101009004909116906323b872dd90606401600060405180830381600087803b15801561070c57600080fd5b505af1158015610720573d6000803e3d6000fd5b5050505061072f828483610d5b565b600083815260046020526040808220805460ff1916815560020191909155516001600160a01b0380861691908416907fb36eff7b5633a7f06feb2b1be43ab1fb34648ea59b5d5bd0303350c4c899f8349061078d9087815260200190565b60405180910390a350505050565b6001600160a01b038216600090815260056020908152604080832084845290915281205460ff166107fc5760405162461bcd60e51b815260206004820152600b60248201526a125b9d985b1a590813919560aa1b60448201526064016102b8565b506001600160a01b03919091166000908152600560209081526040808320938352929052206001015490565b610833338383610edc565b5050565b600082116108875760405162461bcd60e51b815260206004820152601d60248201527f616d6f756e74206d7573742067726561746572207468616e207a65726f00000060448201526064016102b8565b600061089260035490565b90506108a2600380546001019055565b846001600160a01b0381166323b872dd336040516001600160e01b031960e084901b1681526001600160a01b03909116600482015230602482015260448101889052606401600060405180830381600087803b15801561090157600080fd5b505af1158015610915573d6000803e3d6000fd5b50506040516331a9108f60e11b8152600481018890523092506001600160a01b0384169150636352211e90602401602060405180830381865afa158015610960573d6000803e3d6000fd5b505050506040513d601f19601f820116820180604052508101906109849190611a9c565b6001600160a01b0316146109c95760405162461bcd60e51b815260206004820152600c60248201526b18da1958dac819985a5b195960a21b60448201526064016102b8565b6000828152600460209081526040808320805460018083018b905560ff196001600160a01b038881166101000282166001600160a81b0319909416939093178217845560029093018a9055908b168552600584528285208a865290935290832080549091168217815501839055339050610a4581848787610fbc565b6040805187815260208101859052808201879052905133916001600160a01b038a16917f6e74140de0afe89e44cc22522a7dc848c82c4dca3923a26e2637dcc7c6b30bc59181900360600190a350505050505050565b60008181526004602052604081205460ff16610ac95760405162461bcd60e51b81526004016102b890611a5c565b5060009081526004602052604090206002015490565b600081815260046020526040812054819060ff16610b0f5760405162461bcd60e51b81526004016102b890611a5c565b5050600090815260046020526040902080546001909101546101009091046001600160a01b031691565b6001600160a01b038516331480610b555750610b5585336101de565b610b715760405162461bcd60e51b81526004016102b8906119c9565b61041385858585856110c7565b8151835114610be05760405162461bcd60e51b815260206004820152602860248201527f455243313135353a2069647320616e6420616d6f756e7473206c656e677468206044820152670dad2e6dac2e8c6d60c31b60648201526084016102b8565b6001600160a01b038416610c065760405162461bcd60e51b81526004016102b890611ab9565b3360005b8451811015610ced576000858281518110610c2757610c27611a17565b602002602001015190506000858381518110610c4557610c45611a17565b602090810291909101810151600084815280835260408082206001600160a01b038e168352909352919091205490915081811015610c955760405162461bcd60e51b81526004016102b890611afe565b6000838152602081815260408083206001600160a01b038e8116855292528083208585039055908b16825281208054849290610cd2908490611b48565b9250508190555050505080610ce690611a43565b9050610c0a565b50846001600160a01b0316866001600160a01b0316826001600160a01b03167f4a39dc06d4c0dbc64b70af90fd698a233a518aa5d07e595d983b8c0526c8f7fb8787604051610d3d929190611b5b565b60405180910390a4610d538187878787876111f1565b505050505050565b6001600160a01b038316610dbd5760405162461bcd60e51b815260206004820152602360248201527f455243313135353a206275726e2066726f6d20746865207a65726f206164647260448201526265737360e81b60648201526084016102b8565b336000610dc98461134c565b90506000610dd68461134c565b60408051602080820183526000918290528882528181528282206001600160a01b038b1683529052205490915084811015610e5f5760405162461bcd60e51b8152602060048201526024808201527f455243313135353a206275726e20616d6f756e7420657863656564732062616c604482015263616e636560e01b60648201526084016102b8565b6000868152602081815260408083206001600160a01b038b81168086529184528285208a8703905582518b81529384018a90529092908816917fc3d58168c5ae7397731d063d5bbf3d657854427343f4c083240f7aacaa2d0f62910160405180910390a46040805160208101909152600090525b50505050505050565b816001600160a01b0316836001600160a01b031603610f4f5760405162461bcd60e51b815260206004820152602960248201527f455243313135353a2073657474696e6720617070726f76616c20737461747573604482015268103337b91039b2b63360b91b60648201526084016102b8565b6001600160a01b03838116600081815260016020908152604080832094871680845294825291829020805460ff191686151590811790915591519182527f17307eab39ab6107e8899845ad3d59bd9653f200f220920489ca2b5937696c31910160405180910390a3505050565b6001600160a01b03841661101c5760405162461bcd60e51b815260206004820152602160248201527f455243313135353a206d696e7420746f20746865207a65726f206164647265736044820152607360f81b60648201526084016102b8565b3360006110288561134c565b905060006110358561134c565b90506000868152602081815260408083206001600160a01b038b16845290915281208054879290611067908490611b48565b909155505060408051878152602081018790526001600160a01b03808a1692600092918716917fc3d58168c5ae7397731d063d5bbf3d657854427343f4c083240f7aacaa2d0f62910160405180910390a4610ed383600089898989611397565b6001600160a01b0384166110ed5760405162461bcd60e51b81526004016102b890611ab9565b3360006110f98561134c565b905060006111068561134c565b90506000868152602081815260408083206001600160a01b038c168452909152902054858110156111495760405162461bcd60e51b81526004016102b890611afe565b6000878152602081815260408083206001600160a01b038d8116855292528083208985039055908a16825281208054889290611186908490611b48565b909155505060408051888152602081018890526001600160a01b03808b16928c821692918816917fc3d58168c5ae7397731d063d5bbf3d657854427343f4c083240f7aacaa2d0f62910160405180910390a46111e6848a8a8a8a8a611397565b505050505050505050565b6001600160a01b0384163b15610d535760405163bc197c8160e01b81526001600160a01b0385169063bc197c81906112359089908990889088908890600401611b89565b6020604051808303816000875af1925050508015611270575060408051601f3d908101601f1916820190925261126d91810190611be7565b60015b61131c5761127c611c04565b806308c379a0036112b55750611290611c20565b8061129b57506112b7565b8060405162461bcd60e51b81526004016102b8919061152f565b505b60405162461bcd60e51b815260206004820152603460248201527f455243313135353a207472616e7366657220746f206e6f6e2d455243313135356044820152732932b1b2b4bb32b91034b6b83632b6b2b73a32b960611b60648201526084016102b8565b6001600160e01b0319811663bc197c8160e01b14610ed35760405162461bcd60e51b81526004016102b890611caa565b6040805160018082528183019092526060916000919060208083019080368337019050509050828160008151811061138657611386611a17565b602090810291909101015292915050565b6001600160a01b0384163b15610d535760405163f23a6e6160e01b81526001600160a01b0385169063f23a6e61906113db9089908990889088908890600401611cf2565b6020604051808303816000875af1925050508015611416575060408051601f3d908101601f1916820190925261141391810190611be7565b60015b6114225761127c611c04565b6001600160e01b0319811663f23a6e6160e01b14610ed35760405162461bcd60e51b81526004016102b890611caa565b6001600160a01b038116811461146757600080fd5b50565b6000806040838503121561147d57600080fd5b823561148881611452565b946020939093013593505050565b6001600160e01b03198116811461146757600080fd5b6000602082840312156114be57600080fd5b81356114c981611496565b9392505050565b6000602082840312156114e257600080fd5b5035919050565b6000815180845260005b8181101561150f576020818501810151868301820152016114f3565b506000602082860101526020601f19601f83011685010191505092915050565b6020815260006114c960208301846114e9565b634e487b7160e01b600052604160045260246000fd5b601f8201601f1916810167ffffffffffffffff8111828210171561157e5761157e611542565b6040525050565b600067ffffffffffffffff82111561159f5761159f611542565b5060051b60200190565b600082601f8301126115ba57600080fd5b813560206115c782611585565b6040516115d48282611558565b83815260059390931b85018201928281019150868411156115f457600080fd5b8286015b8481101561160f57803583529183019183016115f8565b509695505050505050565b600082601f83011261162b57600080fd5b813567ffffffffffffffff81111561164557611645611542565b60405161165c601f8301601f191660200182611558565b81815284602083860101111561167157600080fd5b816020850160208301376000918101602001919091529392505050565b600080600080600060a086880312156116a657600080fd5b85356116b181611452565b945060208601356116c181611452565b9350604086013567ffffffffffffffff808211156116de57600080fd5b6116ea89838a016115a9565b9450606088013591508082111561170057600080fd5b61170c89838a016115a9565b9350608088013591508082111561172257600080fd5b5061172f8882890161161a565b9150509295509295909350565b6000806040838503121561174f57600080fd5b823567ffffffffffffffff8082111561176757600080fd5b818501915085601f83011261177b57600080fd5b8135602061178882611585565b6040516117958282611558565b83815260059390931b85018201928281019150898411156117b557600080fd5b948201945b838610156117dc5785356117cd81611452565b825294820194908201906117ba565b965050860135925050808211156117f257600080fd5b506117ff858286016115a9565b9150509250929050565b600081518084526020808501945080840160005b838110156118395781518752958201959082019060010161181d565b509495945050505050565b6020815260006114c96020830184611809565b6000806040838503121561186a57600080fd5b823561187581611452565b91506020830135801515811461188a57600080fd5b809150509250929050565b600080600080608085870312156118ab57600080fd5b84356118b681611452565b93506020850135925060408501359150606085013567ffffffffffffffff8111156118e057600080fd5b6118ec8782880161161a565b91505092959194509250565b6000806040838503121561190b57600080fd5b823561191681611452565b9150602083013561188a81611452565b600080600080600060a0868803121561193e57600080fd5b853561194981611452565b9450602086013561195981611452565b93506040860135925060608601359150608086013567ffffffffffffffff81111561198357600080fd5b61172f8882890161161a565b600181811c908216806119a357607f821691505b6020821081036119c357634e487b7160e01b600052602260045260246000fd5b50919050565b6020808252602e908201527f455243313135353a2063616c6c6572206973206e6f7420746f6b656e206f776e60408201526d195c881bdc88185c1c1c9bdd995960921b606082015260800190565b634e487b7160e01b600052603260045260246000fd5b634e487b7160e01b600052601160045260246000fd5b600060018201611a5557611a55611a2d565b5060010190565b6020808252600d908201526c24b73b30b634b2103a37b5b2b760991b604082015260600190565b600060208284031215611a9557600080fd5b5051919050565b600060208284031215611aae57600080fd5b81516114c981611452565b60208082526025908201527f455243313135353a207472616e7366657220746f20746865207a65726f206164604082015264647265737360d81b606082015260800190565b6020808252602a908201527f455243313135353a20696e73756666696369656e742062616c616e636520666f60408201526939103a3930b739b332b960b11b606082015260800190565b808201808211156102e4576102e4611a2d565b604081526000611b6e6040830185611809565b8281036020840152611b808185611809565b95945050505050565b6001600160a01b0386811682528516602082015260a060408201819052600090611bb590830186611809565b8281036060840152611bc78186611809565b90508281036080840152611bdb81856114e9565b98975050505050505050565b600060208284031215611bf957600080fd5b81516114c981611496565b600060033d1115611c1d5760046000803e5060005160e01c5b90565b600060443d1015611c2e5790565b6040516003193d81016004833e81513d67ffffffffffffffff8160248401118184111715611c5e57505050505090565b8285019150815181811115611c765750505050505090565b843d8701016020828501011115611c905750505050505090565b611c9f60208286010187611558565b509095945050505050565b60208082526028908201527f455243313135353a204552433131353552656365697665722072656a656374656040820152676420746f6b656e7360c01b606082015260800190565b6001600160a01b03868116825285166020820152604081018490526060810183905260a060808201819052600090611d2c908301846114e9565b97965050505050505056fea2646970667358221220bb09c6e1a5599b5ae2f19697545fc91327b9fc4c62807c4e8aec7b29119c6c1164736f6c63430008110033",
    "sourcePath": "c:/Users/Administrator/Desktop/202212/nft-fractional/nft-fractional-contracts/contracts/NFTFractional1155.sol",
    "compiler": {
        "name": "solc",
        "version": "0.8.17+commit.8df45f5f"
    },
    "functionHashes": {
        "NFTOf(address,uint256)": "67c8eb10",
        "balanceOf(address,uint256)": "00fdd58e",
        "balanceOfBatch(address[],uint256[])": "4e1273f4",
        "compose(address,uint256)": "5af77140",
        "fractional(address,uint256,uint256,bytes)": "aa3552e3",
        "isApprovedForAll(address,address)": "e985e9c5",
        "safeBatchTransferFrom(address,address,uint256[],uint256[],bytes)": "2eb2c2d6",
        "safeTransferFrom(address,address,uint256,uint256,bytes)": "f242432a",
        "setApprovalForAll(address,bool)": "a22cb465",
        "supportsInterface(bytes4)": "01ffc9a7",
        "tokenOf(uint256)": "ea78803f",
        "totalSupply(uint256)": "bd85b039",
        "uri(uint256)": "0e89341c"
    },
    "gasEstimates": {
        "creation": {
            "codeDepositCost": "1506600",
            "executionCost": "infinite",
            "totalCost": "infinite"
        },
        "external": {
            "NFTOf(address,uint256)": "4944",
            "balanceOf(address,uint256)": "2671",
            "balanceOfBatch(address[],uint256[])": "infinite",
            "compose(address,uint256)": "infinite",
            "fractional(address,uint256,uint256,bytes)": "infinite",
            "isApprovedForAll(address,address)": "infinite",
            "safeBatchTransferFrom(address,address,uint256[],uint256[],bytes)": "infinite",
            "safeTransferFrom(address,address,uint256,uint256,bytes)": "infinite",
            "setApprovalForAll(address,bool)": "26722",
            "supportsInterface(bytes4)": "555",
            "tokenOf(uint256)": "6907",
            "totalSupply(uint256)": "4658",
            "uri(uint256)": "infinite"
        }
    }
}